:1000000020530020B5640100F3F801008964010069
:100010008964010089640100896401000000000016
:10002000000000000000000000000000F55E01007C
:100030008964010000000000A15E010089640100E4
:10004000AD5F0100D9000200AD5F0100AD5F0100AE
:10005000AD5F0100AD5F0100AD5F0100AD5F01006C
:10006000A1000200AD5F0100AD5F0100BF00020012
:10007000AD5F0100AD5F0100AD5F0100AD5F01004C
:10008000AD5F0100AD5F0100AD5F0100AD5F01003C
:10009000AD5F0100AD5F0100AD5F0100AD5F01002C
:1000A000AD5F0100AD5F0100AD5F0100AD5F01001C
:1000B000AD5F0100AD5F0100AD5F0100AD5F01000C
:1000C000AD5F0100AD5F0100AD5F0100AD5F0100FC
:1000D000AD5F0100AD5F0100AD5F0100AD5F0100EC
:1000E000AD5F0100AD5F0100AD5F0100AD5F0100DC
:1000F000AD5F0100AD5F0100AD5F0100AD5F0100CC
:1001000053B94AB9002908BF00281CBF4FF0FF317E
:100110004FF0FF3000F06CB9ADF1080C6DE904CE82
:1001200000F006F8DDF804E0DDE9022304B07047D2
:100130002DE9F047089E0D4604468E46002B40F000
:1001400082808A42174646D9B2FA82F24AB1C2F197
:10015000200105FA02F320FA01F1974041EA030E6B
:1001600094404FEA1748230CBEFBF8FCB9B208FBD9
:100170001CEE43EA0E430CFB01F098420AD9FB182F
:100180000CF1FF3580F01681984240F21381ACF1FA
:10019000020C3B441B1AA4B2B3FBF8F008FB10336B
:1001A00044EA034400FB01F1A14209D93C1900F1E2
:1001B000FF3380F00181A14240F2FE8002383C44CE
:1001C000641A40EA0C4000211EB1D4400023C6E965
:1001D0000043BDE8F08702B9FFDEB2FA82F2002ADE
:1001E0004FD1CB1B4FEA174E1FFA87F80121B3FB03
:1001F000FEFC250C0EFB1C3345EA034508FB0CF303
:10020000AB4207D97D190CF1FF3002D2AB4200F2AC
:10021000E7808446ED1AA3B2B5FBFEF00EFB105545
:1002200043EA054408FB00F8A04507D93C1900F152
:10023000FF3302D2A04500F2D7801846A4EB080491
:1002400040EA0C40C0E78B4208D9002E00F0AF8096
:100250000021C6E900050846BDE8F087B3FA83F13E
:1002600000294BD1AB4202D3824200F2B780841AFC
:1002700065EB030301209E46002EAAD0C6E9004E7E
:10028000A7E7C2F1200C01FA02F3974020FA0CF024
:100290004FEA174E21FA0CFC1843BCFBFEF1050C8B
:1002A0000EFB11CC1FFA87F845EA0C4501FB08F359
:1002B000AB4204FA02F409D97D1901F1FF3C80F048
:1002C0008B80AB4240F2888002393D44EB1A85B204
:1002D000B3FBFEF00EFB103345EA034500FB08F3C9
:1002E000AB4207D97D1900F1FF3C71D2AB426FD907
:1002F00002383D44EB1A40EA014178E7C1F1200C95
:100300008B4022FA0CF71F4320FA0CF405FA01F394
:100310004FEA174E25FA0CF51C43230CB5FBFEF9EA
:100320001FFA87F80EFB195543EA054509FB08FA41
:10033000AA4502FA01F200FA01F308D97D1909F180
:10034000FF3047D2AA4545D9A9F102093D44A5EBA2
:100350000A05A4B2B5FBFEF00EFB105544EA0544B5
:1003600000FB08F8A04507D93C1900F1FF352DD254
:10037000A0452BD902383C4440EA0940A4EB0804CC
:10038000A0FB02894C45C6464D4619D316D05EB136
:10039000B3EB0E0264EB050404FA0CFCCA404CEA11
:1003A0000202CC40C6E900240021BDE8F0873146B6
:1003B00030460EE7AC46EDE6184601E74345E6D287
:1003C000B8EB020E69EB07050138E0E72846D3E7F2
:1003D00060468FE78146BAE7614677E708464BE714
:1003E000ACF1020C3D4415E702383C4426E700BF5F
:1003F000704700BFF8B515460A4A1C4656682EB12C
:1004000001B02A46B446BDE8F040604700208DF8B0
:10041000000068460FF060FB9DF80000281A20706D
:100420000020F8BD0000002001480078704700005F
:100430000800002005490A78904201D30020704747
:10044000496800EBC00001EB800070470800002005
:1004500070B50546202A27D019481A4C00EB831C9A
:100460000CEB420004EB8303202922D00CEB41016A
:1004700040784C784870204601460CEB4100914290
:1004800005704078F8D193F82220202A1ABF0CEB8F
:100490004202547083F8214020220CEB410C8CF86E
:1004A000012083F8221070BD40F27E21702003F0FD
:1004B00091F993F82040407883F82000DBE70000B2
:1004C000F40B0020740C00202DE9FF4F85B0154679
:1004D0000C4602F01FF9284420F07F40029021686A
:1004E000081A0002C11700EB11600012002800F387
:1004F000D580AC48089FAC4E00EB8700039090F885
:1005000020502020E9460DF104088DF8000006F582
:10051000407A202D18BF0AEB871B25D005EB45003C
:1005200006EBC0002268C168511A0902CA1701EB24
:1005300012610830091217D4618971B1418961B91A
:1005400000F0B4FD02F0E6F82168081A0002C117B5
:1005500000EB11600012332806DB0BEB450089F835
:1005600000504578202DD9D199F8000088F8000076
:10057000A146202D1CBF8D4800EB871B00F00E818B
:1005800005EB450106EBC10AD9F80420DAF808109A
:100590004846891A0902CA1701EB12610AF10807D5
:1005A000091215D47989002900F0F88041890029C1
:1005B00040F0F48000F07AFD02F0ACF83968081AD7
:1005C0000002C11700EB11600012332880F2E680B0
:1005D00088F800509AF8141099F80C00814206D956
:1005E0000BEB45004578202DCAD100F0D7B89DF817
:1005F000040000EB400006EBC005688AEF680028A5
:1006000043D16089E8B3A8680FF086FA698A2A7C2A
:10061000674B1144491C4218984204D940F20961C1
:10062000702003F0D7F86348814204DD40F20A618C
:10063000702003F0CFF86048814204DA40F20B6189
:10064000702003F0C7F85D489042DCBF02F5F70266
:10065000A2F1F85205DD002ABCBFA2F5F70202F1B3
:10066000F852104602F056F820F07F41781A000246
:10067000C21700EB126000123328B8BF01F133003B
:1006800000E002E0B8BF20F07F470298381A00026D
:10069000C11700EB11600012002803DD09B0002033
:1006A000BDE8F08FD4E90010401A384427F07F41AC
:1006B00020F07F40C4E900100398DDF820806F46E9
:1006C00090F8205020200DF1040A8DF80000202D14
:1006D0001CBF364800EB881925D000BF05EB45004C
:1006E00006EBC0002268C168511A0902CA1701EB63
:1006F00012610830091216D4618971B1418961B95A
:1007000000F0D4FC02F006F82168081A0002C117B4
:1007100000EB11600012332805DB09EB45003D704A
:100720004578202DDAD138788AF800002746202D28
:100730001CBF1E4800EB881B30D005EB450106EBC3
:10074000C1097968D9F808203846511A0902CA1730
:1007500001EB126109F10808091212D4B8F80A1065
:10076000E1B14189D1B900F0A1FC01F0D3FFD8F883
:100770000010081A0002C11700EB116000123328A4
:100780000CDA8AF8005099F81400397B88427FF619
:100790002EAF0BEB45004578202DCED109B00120BE
:1007A000BDE8F08F740C0020F4080020F40B00204A
:1007B000FF7F841E0020A10700E05EF80080841EF9
:1007C0002DE9F05F04463C480E4600EB86003B4FA7
:1007D00090F82050202098469246107007F54079F6
:1007E000202D18BF09EB861B28D000BF05EB450064
:1007F00007EBC00000F10801C0682268101A00026F
:10080000C21700EB1260001218D4608978B14889D1
:1008100068B9084600F04AFC01F07CFF2168081A1C
:100820000002C11700EB11600012332806DB0BEB4E
:1008300045008AF800504578202DD7D19AF800005D
:1008400088F80000202D18BF09EB861A30D005EB80
:10085000450107EBC1096168D9F808202046511A03
:100860000902CA1701EB126109F10806091210D436
:100870007189E9B14189D9B900F018FC01F04AFF4A
:100880003168081A0002C11700EB1160001233280A
:100890000EDA88F8005099F81400217B884202D8BB
:1008A0000020BDE8F09F0AEB45004578202DCED111
:1008B0000120BDE8F09F0000740C0020F408002027
:1008C0002DE9F74F98B016460D464FF000084FF04F
:1008D000010B02F0A1F90446012D18BF022D05D02D
:1008E00040F694114FF0700002F074FFF9490120B6
:1008F0000860F9498968086000208DF84E000C9066
:10090000401E0E90F54906EB460001EBC00308338C
:100910000FAF0FCB87E80F000FA800F0C7FB0D90BB
:10092000EE48BDF84690B0F89C03ADF84C00B9F124
:10093000000F14BF4FF0010A4FF0000A0F981490F7
:10094000BAF1000F09D0E64890F82C0028B902F05F
:10095000C9FE002808BF012700D00027E148002277
:10096000159200781646012818BF032840D1DD48AB
:10097000B0F80280A8EB09001590C84538D90D9B46
:100980006FEA0801DFF860E358180DF10C0C17AAA4
:10099000734504D940F20961702002F01BFFD34B6C
:1009A000994204DD40F20A61702002F013FFD04B3F
:1009B000994204DA40F20B61702002F00BFFCD493E
:1009C0008142DCBF00F5F700A0F1F85005DD0028FA
:1009D000BCBFA0F5F70000F1F850614601F0B6FE8B
:1009E00003980F9920F07F400390081A20F07F426F
:1009F000002F18BF322604D19DF84C00002818BFE4
:100A00000226B4F1807F08D00F98001B0002C117A6
:100A100000EB11600012012802DA042018990BE0A3
:100A200047B1AF4890F82D0020B19DF84C00061C4E
:100A300018BF022621460120B9F1000F02D0159BF4
:100A40001E2B02DA9DF84C3013B14FF0000B401E04
:100A50008319A4489DF84DE0007815900F98801AEE
:100A600020F07F4CACEB01000002C61700EB1660D3
:100A70000012984218DB002A18BFCDF83CC00F9E28
:100A80000597002701F0C0FF301A0002C11700EBE4
:100A9000116000123E283FDA012D20D0701E05990A
:100AA00020F07F4019B32DE082B1BEF1000F04BFEA
:100AB000159803280AD027B99DF84C00002818BFC4
:100AC0009B1E00228DF84C209046C7E707BB9DF87F
:100AD0004C00E8B100208DF84C009B1EBEE7B4F13D
:100AE000807F20D140F60D11702002F073FEB4F12A
:100AF000807F07D0211A0902CA1701EB126109127F
:100B0000042903DD044601F085FF0CE000290ADD1D
:100B10001BB00020BDE8F08F701E20F07F442046FF
:100B200001F078FF5746B4F1807F24D00F98109BD6
:100B3000001B1B1B704A20F07F4023F07F4383453E
:100B400098BFB0F5800FE3D29A42E1D320460EF071
:100B5000E3FF65490D9A4B1C161AB6EB930F24BFA1
:100B6000A0EB020CBCEB930F10D3B14208D2081AD1
:100B70001044461C0AE040F62D21702002F02AFEA7
:100B800061452CD2891A0844401C46425448807F53
:100B900050B3284645464FF0000BD846012805D0F3
:100BA000022002F08FF9012002F08CF9A94527D22A
:100BB000A6EB05014FF001034FF003024FF00200D6
:100BC00002F0ACF8002808BF4FF00108B9F1000F9F
:100BD00030D00123A6EB0901032218461EE040F69F
:100BE0000C31702002F0F6FDC14534BF4046484646
:100BF0005844B042CDDB4FF42461702002F0EAFD8E
:100C000010D90123A6EB09010322184602F086F849
:100C100028B37DB1711B01230322022002F07EF86C
:100C2000E8B107E055EA090004D040F677117020DA
:100C300002F0D0FD012303223146002002F06EF8BD
:100C400068B10125B8F1000F03D014980F908DF80A
:100C50004CB0DFF8A880BAF1000F0ED109E00220F5
:100C600002F030F9012002F02DF91BB00020BDE8A0
:100C7000F08F1B4890F82D0000B14FB3DFF860A053
:100C80009AF82C0018B102F0F5FB8AF82CB007B3E3
:100C9000A4F1320020F07F414FF40020C8F800009A
:100CA00000230322052002F039F868B34FF0804496
:100CB000052002F0D3F91249C1F81005C1F8144516
:100CC0001049E0120860064C94F82D00E8B330E0BB
:100CD0001BE01FE00805004010000020F408002081
:100CE000740C002012000020FF7F841E0020A1074A
:100CF00000E05EF80080841EFFFF3F0008F5014021
:100D000098F0014004F5014025E0DFF8B8A09AF81A
:100D10002C00C8B12B4C94F82D0050B14FF400209A
:100D2000C8F80000052002F0CDF802F00BFC84F8B2
:100D30002DB0A6EB0900A0F11901002915DC40F641
:100D40007121702002F046FD00E009E002F0AEFBE8
:100D50008AF82C509BE740F23E31702002F03AFDB9
:100D600002F0E2FB84F82D50E3E703220123104652
:100D700001F0D4FF08B314488068C0F800B01348ED
:100D8000C0F800B00CAC124894E80E10C0F8801304
:100D9000C0F88423C0F88833C0F88CC310AC94E842
:100DA0000E10C0F89013C0F89423C0F89833C0F820
:100DB0009CC31BB00120BDE8F08F40F67921702064
:100DC00002F008FD740C002010000020080500400F
:100DD000F40800202DE9F043064683B008789073AC
:100DE000CF7A5773887A10730889144650810D465C
:100DF0000A785F4999464FEA810C4B42ACF10108F1
:100E00005AB1C043D5F8048004F1080288423DDDA0
:100E100040F20A61702002F0DDFCEE686D686FEA56
:100E2000000904F1080206EB0900464504D940F226
:100E30000961702002F0CEFC8945E9DC994528DB88
:100E40008445DCBF00F5F700A0F1F85005DD00286F
:100E5000BCBFA0F5F70000F1F850214601F076FC88
:100E6000206820F07F417019401C2160002F08BFCE
:100E70007A3003D0012F08BF48302DD101F04AFC51
:100E800020F07F40606003B0BDE8F08301469842E7
:100E900004DA40F20B61702002F09CFC8445DCBF58
:100EA000A1F1F450A0F5902005DD0028BCBF01F1B0
:100EB000F45000F59020214601F048FC2068002FF6
:100EC00020F07F4108F10100216008BF7A3008D08E
:100ED000012F08BF483004D040F2B161702002F009
:100EE00079FC01F017FC20F07F416160608901AA64
:100EF000694601F02BFC1F4890F82F10202923D0C1
:100F00000069401D20F07F40D4E90021891A20604B
:100F1000084420F07F4060604B4632462146E86836
:100F2000FFF7D2FA00281CBF03B0BDE8F083D4E974
:100F30000010401A304426F07F4120F07F40C4E981
:100F4000001003B0BDE8F083608906F1090720B105
:100F500002F0C8FB002808BF3237074841780098E4
:100F6000814284BF081A074427F07F40CCE7000085
:100F70000020A107740C00201200002010B5154CB1
:100F800094F82F00202818BF10BD94F82E2004EBF1
:100F9000820090F82010202917D0DFF83CC00CEB1D
:100FA000821303EB41035B7880F82030012380F843
:100FB000233084F82B3084F82F10022000F0B0F892
:100FC000002084F82A00A07710BD40F28B317020F9
:100FD00002F000FC740C0020F40B00202DE9F05FFF
:100FE000DFF8B88098F82E5008EB850090F8214083
:100FF000202C08BFBDE8F09FDFF8A4B0DFF8A4A064
:10100000AAF540790AEB8517072617F8140001287E
:101010000ED0042808BF02260AD005280CBF0326DC
:10102000062805D040F6D9014FF0700002F0D2FB3F
:10103000BBF1000F18BFAFF30080EFF3108072B662
:1010400007EB44014A7808EB850181F8212091F8EB
:101050002220A24204BF202281F82220B8B12A46D1
:101060002146012000F05CF804EB440109EBC100CB
:1010700059F8312040683146904798F82E5008EBD7
:10108000850090F82140202CBCD1BDE8F09F064897
:10109000002818BFAFF3008062B6E0E7740C0020B0
:1010A00000000000F40B00200000000010B5044612
:1010B00000680EF031FD02466089217A144B084425
:1010C000411C50189A4204D940F20961702002F084
:1010D00081FB104A914204DD40F20A61702002F067
:1010E00079FB0D4A914204DA40F20B61702002F064
:1010F00071FB0A498142DEBF00F5F700A0F1F8500C
:1011000010BD0028BCBFA0F5F70000F1F85010BDDD
:10111000FF7F841E0020A10700E05EF80080841E8F
:10112000DFF854C010B500230CEB821C07281ED238
:10113000DFE800F0050505050404040001230CF8B0
:101140001100002B08BF10BD0C4800EB820292F882
:10115000220020280EBF82F821100CEB40004170C5
:1011600020200CEB4103587082F8221010BD4FF480
:101170001571702002F02EFBF40B0020740C00207F
:101180002DE9F34F83B05C48049900EB8100019096
:1011900090F8204003982546012818BF022805D062
:1011A0004FF42B614FF0700002F014FB0027202D4C
:1011B0004AD0514800910026807F002808BF0226AF
:1011C00001F022FCDFF838A104EB44010AEBC10175
:1011D000DFF828918A68C968121A091A22F07F423A
:1011E00021F07F41964298BFB2F5800F01D2894528
:1011F00028D2444A009902EB811B22460BEB4201A4
:101200004C78202C16D004EB44010AEBC10CDCF81E
:101210000880DCF80CC0A8EB000828F07F48ACEB95
:10122000000121F07F41464598BFB8F5800FE4D218
:101230008945E2D3202A05D020210420009BFFF716
:1012400007F90446AC4215D12F48002818BFAFF368
:10125000008001F0D9FB284C94F8301020290DD0E3
:10126000E168821C511A0902CA1701EB12610912C6
:10127000002903DD05B00020BDE8F08F202D0DD042
:101280002A460399FFF71CFB58B3019880F8237096
:1012900084F8305005B00120BDE8F08F94F82C00A0
:1012A00018B102F0E7F884F82C7094F82D0050B1D2
:1012B00016494FF400200860052001F003FE02F0FB
:1012C00041F984F82D70042001F0FCFD01F068FE66
:1012D000202084F830000E48806807600D480760C1
:1012E000D8E72A4620210420049BFFF7B1F805B077
:1012F0000020BDE8F08F0000740C0020FFFF3F00CD
:10130000F4080020F40B00200000000008F5014064
:101310001000002008050040064910B591F82F2064
:10132000202A1CBF887710BD40F2EA31702002F0FD
:1013300051FA0000740C00202DE9F04F5B4E8146FD
:1013400085B096F82F008A4620284DD096F82F00B9
:1013500006F10C0400EB4000A6F5607808EBC0072E
:1013600020208DF8000096F82E0003AA06EB8000DE
:1013700001A990F82050306902903068484401F08B
:10138000E5F9F86801994A4A0844A9F165019142D2
:101390002FD8B968411A21F07F41B1F5800F28D2CA
:1013A00020F07F406060304684F80CA090F82E005A
:1013B000EA46202D1CBF3F4901EB801B3CD005EBCA
:1013C000450008EBC0076068BA682146101A0002A1
:1013D000C21700EB126007F1080600121BD47089D7
:1013E00050B3488948B127E040F67B31702002F0C5
:1013F000F1F905B00120BDE8F08F2046FFF756FE59
:1014000001F088F93168081A0002C11700EB116079
:101410000012332810DA8AF80050397D207B81428F
:1014200005D80298606005B00220BDE8F08F0BEB94
:1014300045004578202DC2D1052001F043FD1B4C0D
:101440004FF0FF30A06094F82E309DF8002020214E
:10145000202A13BF052004EB830090F82000FEF73C
:10146000F7FF94F82E20134901EB821194F82F20F6
:1014700001EB42014870206848442060012084F854
:101480002B00607E012805D12069401E20F07F409E
:1014900001F05EFB9DF80000202803D0064840784C
:1014A00002F068FA05B00020BDE8F08F740C00204F
:1014B0009B1FA107F40B00201000002070B5234AE9
:1014C00092F82F10202939D092F82F10A2F56073CE
:1014D00001EB410103EBC10C92F82E1092F82E4063
:1014E00002EB810191F82010A2F1800505EB841434
:1014F000202928D001EB410503EBC5052D7D854250
:1015000084BF04EB41014978F2D801EB410103EBC0
:10151000C101DCF80C0089681468081A0002C117C0
:1015200000EB1160001207D40EF0F6FA04F1650129
:10153000884224BF001B70BD002070BD40F64D31B5
:10154000702002F047F94FF0FF3070BD740C00209E
:10155000064810B590F82F1020291CBF007E10BD42
:1015600040F67431702002F035F90000740C002050
:101570000246144B10B508449A4204D940F209615E
:10158000702002F027F9104A914204DD40F20A610E
:10159000702002F01FF90D4A914204DA40F20B610B
:1015A000702002F017F90A498142DEBF00F5F7000A
:1015B000A0F1F85010BD0028BCBFA0F5F70000F165
:1015C000F85010BDFF7F841E0020A10700E05EF8E8
:1015D0000080841E104A0B1A02F1010CB3EB9C0F21
:1015E0003CBF1846704710B5441AB4EB9C0F3CBF83
:1015F000184610BD9A4203D2101A0844401C10BD70
:10160000A24204D2511A0844401C404210BD40F688
:101610000C31702002F0DEF8FF7F841E074991F83C
:101620003020824204BF4868704700EB4000044904
:1016300001EBC0000830FFF739BD0000740C00203A
:10164000F40800200E4910B591F82F00202812D080
:1016500091F82F00A1F5607200EB400002EBC00092
:1016600091F82F10406801EB410152F83120BDE89C
:1016700010400421104740F6BC01702002F0AAF887
:10168000740C0020F8B56D4D6D49012605F56074A8
:10169000082873D2DFE800F004679DAFCD44B4B9E9
:1016A00094F82C0018B901F001FF84F82C60E08A4E
:1016B00010B102F017F888B1FFF760FC84F82960D8
:1016C000A168B1F1FF3F05D001230322052001F0FD
:1016D00025FB40B1607E012810D109E04FF407617D
:1016E000702002F077F840F67501702002F072F871
:1016F0002069401E20F07F4001F02AFA94F82F0064
:1017000094F82F1000EB400005EBC000406801EB9F
:10171000410155F8312001B00121BDE8F0401047EA
:10172000FFF72CFC4FF0FF30A06094F829008DF8F3
:1017300000009DF8000088B194F82F0094F82F1055
:1017400000EB400005EBC000406801EB410155F89B
:10175000312001B00621BDE8F040104740F6860177
:10176000702002F037F8FFF709FC84F8286001F0D8
:10177000B9FF20B194F82C0030B109E059E040F6EF
:101780009601702002F026F801F090FE84F82C609B
:1017900094F82D0058B12B494FF400200860052023
:1017A00001F090FB01F0CEFE002084F82D0094F8AB
:1017B0002F0094F82F1000EB400005EBC0004068AC
:1017C00001EB410155F8312001B00021BDE8F040A6
:1017D000104701F02FFCE08A10B101F083FF28B11F
:1017E00019480078032808BF6677F8BD40F6A101C4
:1017F000702001F0EFFF1548066088680660F8BDAC
:101800000878BDE8F84002F0B5B8FFF7B7FB94F8E8
:101810002F0094F82F1000EB400005EBC00040684B
:1018200001EB410155F8312001B00521BDE8F04040
:10183000104740F6B401702001F0CCFFF4080020FE
:101840001000002008F501401200002008050040AB
:10185000034810B540780EF05FF980B210BD00006B
:10186000120000202DE9F34F8246DC488BB000685F
:10187000DB4DC005C00D0ED0103840B20028B8BFF7
:1018800000F00F0000F1E020ACBF90F8000490F8E9
:10189000140D40090DD00C984FF0000B0078002873
:1018A00018BF012818D040F24F714FF0700001F0BE
:1018B00091FF95F82F004FF0010B202807D00C98CE
:1018C000007848B140F24B71702001F083FF4FF473
:1018D000E961702001F07EFFC24C24B1002140F28A
:1018E0005270AFF30080C0490AEB4A0001EBC00020
:1018F0004FF00108009024B1002140F25A70AFF37C
:101900000080B8F1000F09D095F82E604FF0000963
:1019100085F82B90BBF1000F07D032E0B3480028C8
:1019200018BFAFF3008062B6EEE73746012020EA29
:101930000706AF48402200EB871100EB86100EF03F
:1019400059FA24B1002140F2CD50AFF3008005EBED
:10195000870105EB8600096A016224B1002140F28B
:10196000D150AFF3008024B1002140F26470AFF396
:10197000008095F82B008DF804009DF804000028E5
:10198000B9D124B1002140F26E70AFF3008001F0B4
:101990003BF88046334606AA0C99FFF71BFA24B1A0
:1019A000002140F27570AFF30080914906A801EB69
:1019B000861717F81A10012918BF02293CD1069979
:1019C000079BA1EB08018B4A21F07F41A3EB0803A1
:1019D00023F07F43022971D3B1F5800F6ED29A4272
:1019E0006CD34FF0010901AB05AA3146FEF7E8FEC2
:1019F00000286BD09DF814109DF8042033468A42CD
:101A000068D00520FEF724FD07EB4A0148709DF8D9
:101A10001400202803BF05EB860080F820A080F882
:101A2000239007EB400018BF80F801A032465146D2
:101A30005FF00300FFF774FB05EB860090F82300CE
:101A40008DF804009DF8047024B1002140F27C70F0
:101A5000AFF300806848002818BFAFF30080EFF3B1
:101A6000108872B624B1002140F28270AFF300807A
:101A700095F82B008DF804009DF8040000287FF4F1
:101A80003AAF24B1002140F28A70AFF300800DF12B
:101A9000180E00989EE80E1000F10800B9F1000F32
:101AA00080E80E1044D024B1002140F29770AFF3CB
:101AB0000080BBF1000F2CD116E0FFE73246514603
:101AC0000420FFF72DFB4FF00109B5E732465146E0
:101AD0000420AFE7202919BF07EB4100407805EB50
:101AE000860090F820008FE79FB195F82F002028FE
:101AF0000FD124B1002140F29C70AFF30080314639
:101B00000220FFF73DFB20B90C980078F0B30128C4
:101B10004CD024B1002140F2B970AFF30080BBF18A
:101B2000000F18BF01204AD085F82B004FF00109A3
:101B300024B1002140F2CA70AFF30080B8F1000F69
:101B400045D024B1002140F2CE70AFF30080B9F14E
:101B5000000F11D095F82E0005EB800090F82100C1
:101B6000202809D024B1002140F2D570AFF30080C5
:101B70002248407801F0FEFE24B1002140F2DA70E4
:101B8000AFF300800DB04846BDE8F08FFFE724B109
:101B9000002140F2A470AFF3008095F82E2051464A
:101BA0000420FFF7BDFA4FF00109C1E7002C3FF414
:101BB000A2AE002140F2AF70AFF300809BE695F833
:101BC0002E10012020EA010185F82E10ACE707480D
:101BD000002818BFAFF3008062B6B2E704ED00E062
:101BE000740C002000000000F40800200000000039
:101BF000F40B0020FFFF3F00000000001000002059
:101C00002DE9F14FA5488CB00068C005C00D11D07A
:101C1000103840B20028B8BF00F00F0000F1E020FB
:101C2000ACBF90F8000490F8140D400908BF4FF0C5
:101C3000010901D04FF000090C98007800284FF0FE
:101C400000001CBF0DB0BDE8F08FDFF854A2954D29
:101C5000954C4FF0000B0B9025B100214FF4CB6059
:101C6000AFF3008094F82E6084F82BB04FF000089A
:101C700025B1002140F25D60AFF30080B9F1000FA3
:101C80001DD13746012020EA07068848402200EB94
:101C9000871100EB86100EF0ADF825B1002140F25F
:101CA000CD50AFF3008004EB870104EB8600096A96
:101CB000016225B1002140F2D150AFF3008025B17F
:101CC000002140F26560AFF3008000F09DFE074602
:101CD00033466A460C99FFF77DF825B1002140F2A2
:101CE0006B60AFF3008094F82F00202814D0206997
:101CF0000099091A0902CA1701EB126109120BD5E2
:101D0000DDE90021891A20F07F42084420F07F405D
:101D1000CDE900204FF001084DB1002140F275607F
:101D2000AFF30080002140F27B60AFF300800098A9
:101D30000199C01BC91B20F07F4021F07F41B0F505
:101D4000800F05D28A4503D3B9F1000F0CD103E00F
:101D5000B9F1000F38D094E033463A46694654480A
:101D6000FEF7B2FB48EA0008B8F1000F22D0009855
:101D70000DF0D2FEBDF80A109DF808204D4B11441D
:101D8000491C4218984241D8494881425ADC404295
:101D900081425FDB581C9042DCBF02F5F702A2F1E2
:101DA000F85205DD002ABCBFA2F5F70202F1F85295
:101DB0000C98C26001200B90002D62D0002140F2EF
:101DC0008E60AFF300805CE0BDF80A0008AA07A9A6
:101DD00000F0BCFC94F82F0020281CD02069401D86
:101DE00020F07F40DDE90021891A014421F07F4184
:101DF000CDE900010DF090FEBDF80A109DF8082015
:101E00002C4B11444A1C8118984218D940F20961A0
:101E1000702001F0DFFCBDF80A0007F1090620B1CF
:101E200001F060FC002808BF32362348417807984B
:101E3000814284BF081A064426F07F40D2E71C483E
:101E4000824204DD40F20A61702001F0C3FC1B48AD
:101E5000824204DA40F20B61702001F0BBFC1848AA
:101E60008842DCBF01F5F701A1F1F85105DD002939
:101E7000BCBFA1F5F70101F1F8510C98C160012038
:101E80000B9094F82B008DF810009DF8100000289E
:101E90007FF4E2AE0B980DB0BDE8F08F04ED00E0EA
:101EA000FFFF3F0000000000740C0020F40B002036
:101EB0000020A107FF7F841E1200002000E05EF8D2
:101EC0000080841E2DE9F14F884D8CB095F82E00CE
:101ED000002009900120864C4FF00009A5F18007F1
:101EE0008046089024B1002140F2E970AFF30080F1
:101EF0000898002837D000BF85F82B9024B1002126
:101F000040F2EE70AFF3008095F82EA0402228EA50
:101F10000A0607EB861007EB8A1183460DF06AFF6D
:101F200024B1002140F2CD50AFF3008005EB8600D4
:101F300005EB8A010090096A016224B1002140F298
:101F4000D150AFF3008095F82B008DF808009DF874
:101F5000080078B1002C1CBF002140F2F470C1D001
:101F6000AFF30080BEE76348002818BFAFF30080DE
:101F700062B6C1E724B100214FF4FF60AFF30080E7
:101F80000C981BF81000032872D1DDF800A0CDF8E2
:101F900018A00C999AF82000884214BF4FF0000B4B
:101FA0004FF0010B0AF1200C8646202207EB861326
:101FB00003E0024603EB42004078884202D020282A
:101FC0000AD0F6E7202807D0864507D103EB4E005C
:101FD00040788CF8000007E048460CE003EB400036
:101FE00003EB42014078487024B1002140F23750A1
:101FF000AFF30080404610EA0B0F18BF8AF8238029
:10200000002852D024B1002140F2FD70AFF30080CF
:10201000324601200C99FFF783F8069890F82300C8
:102020008DF808009DF808A024B1002140F60800B2
:10203000AFF300803048002818BFAFF30080EFF303
:10204000108072B6089024B1002140F60D00AFF365
:10205000008095F82B008DF808009DF8080040B12D
:10206000002C1CBF002140F611003FF43BAF77E786
:102070001BE0BAF1000F08D095F82F00202804D1FA
:1020800031460220FFF77CF808B324B1002140F666
:102090002500AFF3008095F82E0028EA000085F8AF
:1020A0002E0085F82B800120099024B1002140F6F4
:1020B0002E00AFF30080089888B124B1002140F6CB
:1020C0003200AFF3008009980DB0BDE8F08F002C0E
:1020D000F1D000214FF40260AFF30080E6E705483D
:1020E000002818BFAFF3008062B6E6E7740C00204A
:1020F00000000000000000000000000010B52028D3
:1021000011D20E4991F82E30A1F1800202EB831C0E
:102110001CF810303BB191F82E3002EB831212F80C
:102120001020012A01D0002010BD91F82E20014678
:102130000020FEF7F5FF012010BD0000740C002008
:102140002DE9F84F804E804696F82E00A6F18007C4
:1021500007EB801010F81800002868D096F82E9031
:102160007A4D25B1002140F6C130AFF3008007EB76
:10217000891414F81800012818D0C0B204281CBF14
:102180000528062858D02DB14FF0000140F6CD307B
:10219000AFF3008001F044FC25B1002140F6D130BE
:1021A000AFF3008014F818000128E6D1012425B10E
:1021B000002140F6D830AFF30080002C42D0002040
:1021C00086F82B0025B1002140F6DD30AFF300800A
:1021D00096F82EB0012020EA0B0907EB8B1107EBD4
:1021E000891040220DF006FE25B1002140F2CD50AD
:1021F000AFF3008006EB8B0006EB890A006ACAF891
:10220000200025B1002140F2D150AFF3008096F8B4
:102210002B008DF800009DF80000D0B1002D1CBFF0
:10222000002140F6E330C2D0AFF30080BFE740F6B4
:10223000B831702001F0CEFA4A4641460120FEF73F
:102240006FFFA9E74248002818BFAFF3008062B6CD
:10225000B5E725B1002140F6E730AFF300809AF8EA
:1022600021200AF1210114464FF0200B07EB8910C1
:102270000AF1220A03E0A34600EB4B035C784445D5
:1022800002D0202C2BD0F6E7202C28D0A24204D15B
:1022900000EB42004078087005E000EB440100EBE1
:1022A0004B0049784170BAF1000F11D025B10021DF
:1022B00040F22F50AFF300809AF80000A04207D1FF
:1022C00025B1002140F23250AFF300808AF800B00F
:1022D0005DB1002140F23750AFF3008000E025B13E
:1022E000002140F6EB30AFF300801A48002818BFF9
:1022F000AFF30080EFF3108472B696F82B008DF8E0
:1023000000009DF8000038B1002D1CBF002140F6F0
:10231000F1303FF44CAF87E786F82E90012086F825
:102320002B0054B1002D08BFBDE8F88F002140F606
:10233000FE30AFF30080BDE8F88F0548002818BFD5
:10234000AFF3008062B6EDE7740C002000000000DF
:10235000000000000000000070B50D46064601F0C8
:10236000AFF90F4890F82E200024803800EB82103F
:1023700010F8141029B1611CCCB2202CF8D3202005
:1023800070BD084804EB440140F8316000EBC10027
:10239000214645600120FEF7C3FE204670BD0000C7
:1023A000740C0020F40800202DE9F04F83B000F0F9
:1023B0002BFB054600F0F4FD674CA068B0F1FF3F31
:1023C0001CBF4FF0FF30A060A07FDFF890B1A8B92C
:1023D000D4E90301081A0002C11700EB11600012D2
:1023E0004FF40C710DF0C5FB21690844281A000256
:1023F000C11700EB11600012C00F13D0607E28B32C
:1024000094F829008DF800009DF80000F0B100F06C
:1024100009FC00BF94F82A00F0B140F24741702057
:1024200001F0D8F994F82F0094F82F1000EB400039
:102430000BEBC000406801EB41015BF83120082143
:1024400090474FF48661702001F0C4F9E81C20F039
:102450007F4000F0DFFADDE74FF0010A84F82AA0A0
:1024600094F82F00202824D094F82F80202084F87E
:102470002F0084F83000002684F8286084F8296052
:10248000374826600078022816BF03280120002064
:10249000207794F82E7004EB870999F82000202803
:1024A00031D000EB40000BEBC000817D012905D04D
:1024B00029E040F24A41702001F08CF9AB4600F16E
:1024C0000805408A01AA694600F040F994F82F00F7
:1024D000202804D02069401D20F07F400BE068894F
:1024E0000BF1090B28B101F0FDF8002808BF0BF132
:1024F000320B2BF07F40D5E90021891A286008446F
:1025000020F07F40686039460120FEF739FE002840
:10251000F9D0144800EB871010F81800022804D1F5
:102520003A4641460620FEF7FBFD84F82BA099F8B9
:102530002100202803D00C48407801F01BFA207FAE
:10254000002804BF03B0BDE8F08F00F073FD2677CC
:10255000667703B0BDE8F08F740C0020F40800200B
:1025600012000020F40B00201000002010B5324CA7
:1025700082B094F82F10202908D0A168B1F1FF3F54
:1025800009D040F6E921702001F024F940F6E82155
:10259000702001F01FF962680146284B50189A42DA
:1025A00004D940F20961702001F014F9244A9142E3
:1025B00004DD40F20A61702001F00CF9214A9142D9
:1025C00004DA40F20B61702001F004F91E498142E7
:1025D000DCBF00F5F700A0F1F85005DD0028BCBF16
:1025E000A0F5F70000F1F85001AA694600F0AEF836
:1025F0009DF804000F288CBF01200020009908449A
:1026000020F07F41A16094F829008DF800009DF82A
:102610000000002804BF02B010BD012303220520E2
:1026200000F07CFB00281CBF02B010BD40F6F12179
:10263000702001F0CFF80000740C0020FF7F841E92
:102640000020A10700E05EF80080841E70B51E4CDB
:10265000202184F8201084F8211084F82210002012
:1026600084F8230084F82E0084F82F10421EA26004
:102670002060A07784F8280084F82900207760770C
:1026800084F83010114984F82C0084F82D0008706B
:1026900048704880A4F182011022887001F8040F6C
:1026A000521EFAD10A4D012684F82A60FF202870B4
:1026B000084801F041F9687001F09CF9A86000F049
:1026C000E7FC84F8316070BD740C0020120000201B
:1026D00010000020DD0F000070B50546012000FA53
:1026E00005F40E46002A08BF08480CD0002000F070
:1026F000B5FCE90001F1804101F5F831C1F81005A0
:10270000C1F814650248046070BD000008F501407E
:1027100004F50140410B48F2376251430A0C094B62
:10272000510202FB03020848504300F586306E3028
:10273000400D5B4210FB03F3B2EB532F88BF491CE3
:1027400008447047F7C2FFFF6F0C0100430B48F2CB
:10275000376C03FB0CF330B41B0CDFF844C05C0295
:1027600003FB0C030F4858434FEA505C04EB0C008A
:1027700043F609541CFB04F404F5807C43F6085529
:10278000A3EB5C2C2C440CF0FF0CB3EB542F84BF58
:102790004FF0000C401C086082F800C030BC70474D
:1027A000F7C2FFFF6F0C01002DE9F041364CD4F861
:1027B00004034FF4006610F4803F4FF0E0274FF021
:1027C000000519D031480068B0B1C4F84051C7F8CD
:1027D00080622F480068D4F80415401A20F07F402A
:1027E000022802D3B0F5800F06D34FF48030C4F82E
:1027F00008030420FEF746FFD4F8040310F4003F5A
:1028000019D024480068B0B1C4F84451C7F88062B8
:1028100021480068D4F80415401A20F07F400228AF
:1028200002D3B0F5800F06D34FF40030C4F808038C
:102830000520FEF727FFD4F8040310F4802F08BF0B
:10284000BDE8F08115480068002808BFBDE8F081A8
:10285000C4F84851C7F8806211480068D4F80415DC
:10286000401A20F07F40022804D3B0F5800F38BF13
:10287000BDE8F0814FF48020C4F80803BDE8F041C2
:102880000620FEF7FFBE000000B0004040B100404F
:1028900040B5004044B1004044B5004048B100405C
:1028A00048B500402DE9F041384D2878042868D01B
:1028B000E81C0122017859B1012908BF6A7002D0D1
:1028C0006978002958D002210170407800F0FAFAA6
:1028D0002F4CD4F804034FF0000810F4002F4FF4ED
:1028E00080774FF0E0260AD02A48006838B10320EC
:1028F00000F0E8FAC6F880720320FEF7C3FED4F8B1
:10290000040310F4802F0AD02348006838B1022055
:1029100000F0D8FAC6F880720220FEF7B3FED4F8B1
:10292000040310F4003F0AD01C48006838B10120AD
:1029300000F0C8FAC6F880720120FEF7A3FED4F8B2
:10294000040310F4803F08BFBDE8F081144800681C
:10295000002808BFBDE8F081002000F0B3FAC6F8F7
:10296000807204202870C5F80880C4F80082BDE891
:10297000F0410020FEF786BE40F26A316C2000F084
:1029800029FFBDE8F0410720FEF77CBE1C000020B7
:10299000008000404C81004048810040448100405C
:1029A00040810040012211024FF0E0230020C3F8D3
:1029B000801103F5C073BFF34F8FBFF36F8FC3F860
:1029C00000110E4941F8042F431EC1F80433C1F829
:1029D0003C05C1F83C010A4BC3F84005C1F8400171
:1029E0001B1DC3F84005C1F844011B1DC3F8400579
:1029F000C1F84801CA600349487070470080004030
:102A0000048000401C00002001480068704700005E
:102A100004B500402DE9F047474E0546F71E3278D1
:102A2000F968012A04BFA942BDE8F0874FF0404091
:102A3000424B186042486FF48023C0F8083300F11D
:102A400004034FF00004002A61D06FF4A02CC0F8FA
:102A500048C3C3F84045C0F844413A4B1B684FF0A7
:102A6000E0294FF00108002B04BF4FF40063C9F8C0
:102A700080324FF48033C0F80833C0F84833C0F8D0
:102A80004041D0F80435EB1A23F07F43022B4BD39F
:102A9000B3F5800F48D2C0F840554FF48033C0F8EA
:102AA000443332B1D0F804258A1A22F07F42022A38
:102AB000F8D3C7F808803C70FFF774FF2248D0F8BD
:102AC000041564F30101C0F80415D0F808250221AB
:102AD00061F30102C0F80825D0F81025042161F344
:102AE0000302C0F81025C0F80C80B968C0F80012C5
:102AF0008015C9F88002C9F800011449C0050860B2
:102B00000420FD60707086F80080BDE8F0876FF4E7
:102B1000802CC0F848C3C0F84045C0F84041C3F815
:102B20004045C0F8444198E70021C0F840154FF4F3
:102B3000FA716C2000F04EFE1F00002008F50140E5
:102B400000B0004048B100400080004004F5014062
:102B500070B52C4CE268824214BF01210021DFF8DD
:102B6000A8C09CF80050022D02D0002937D002E006
:102B7000002908BF70BD617881B3244B4FF08041BC
:102B800019608B132249C1F80833C1F84833002378
:102B9000C1F84031D1F80435C31A23F07F43022B2A
:102BA00027D3B3F5800F24D2C1F840054FF480330A
:102BB000C1F844333DB100BFD1F80435D31A23F036
:102BC0007F43022BF8D3134B02214A071A60E060BF
:102BD00004208CF801008CF8001070BD04E040F275
:102BE00002216C2000F0F6FD40F206216C2000F07E
:102BF000F1FD0020C1F8400540F212216C2000F0E8
:102C0000E9FD00001C0000201F00002008F5014025
:102C100000B0004004F501400148C0687047000062
:102C20001C0000202DE9F04136496FF48020C1F8E6
:102C30000803354D0B1D0022287868B16FF4A02CD5
:102C4000C1F848C3C3F84025C1F844212F4B1B6885
:102C50004FF0010C9BB90CE06FF4802CC1F848C315
:102C6000C1F84025C1F84021C3F84025C1F84421EE
:102C7000ECE74FF0E0244FF40063C4F88032022800
:102C800004D040F21E216C2000F0A4FDD1F8040510
:102C90001F4CC01C20F07F40E3681E4E98420CD0B1
:102CA000D1F80475DF1B27F07F47042F05D3B7F554
:102CB000800F02D2FFF7AEFE1FE0D1F80405181A0C
:102CC00020F07F40022815D3B0F5800F12D21249B0
:102CD0004FF080400860C4F808C02270C6F804C0F5
:102CE000C6F80CC04000091F08600420687085F811
:102CF00000C002E0C4F808C02270A068C6F8000254
:102D0000BDE8F08100B000401F00002048B1004045
:102D10001C0000200080004008F501402DE9F0472C
:102D2000DFF890C1002601279CF800409CF801C004
:102D30004FF4A07507287BD2DFE800F004040404F8
:102D40006C6C6C00DFF87081D8F80C90B9F1807F62
:102D500004BF98F80180B8F1000F02D0022C05D012
:102D60002CE040F251216C2000F034FDACF104085D
:102D700008F0FF0805EB880505F1804808F53048A4
:102D80000025012C02D0022C0BD014E0BCF1040F62
:102D900024BFD8F80090B9F1000F08BF4FF00045EC
:102DA00009E0BCF1040F24BFD8F80090B9F1000F7E
:102DB00008BF45F0804515F0804FE1D13F4C00F150
:102DC000100C07FA0CFCC4F808C304EB8005C2B170
:102DD0004FF0400808EB800808F0FF08A044C8F84E
:102DE000007004EB8000D0F84005A1EB000020F05B
:102DF0007F40824298BFB0F5800F28BFC5F840657C
:102E000050D2C5F84015012B08BFC4F804C30120F7
:102E1000BDE8F08734B1844504D14FF41D716C20B6
:102E200000F0D8FCA0F1040C0CF0FF04012B00E032
:102E30003BE00CBF4FF001084FF00008032C04D317
:102E400040F24D116C2000F0C5FCDFF874C004F1B5
:102E5000100307FA03F3CCF80833CCF8483305EB3A
:102E600084044CF80460001FC0B20CEB80006AB10F
:102E7000DCF804450C1B24F07F44A24298BFB4F553
:102E8000800F24BF0021C0F840150BD2C0F84015B8
:102E9000B8F1000F18BFCCF80433CCF8443301204C
:102EA000BDE8F0870020BDE8F08740F279216C2072
:102EB00000F090FC1F0000201C000020008000405B
:102EC00000B000402DE9F84300264FF4A0774FF002
:102ED0000108072851D2DFE800F00404040419199E
:102EE000190000F1100108FA01F22649C1F808237F
:102EF00001EB80030022C3F8402507EB80028E50CF
:102F0000214951F820000090BDE8F8831F4D011FB2
:102F1000CCB2297879B16A7882420CD11C4A4FF040
:102F200040401060012908BFFFF73CFD2E70194991
:102F30004FF08070C86004F1100008FA00F11648E4
:102F4000C0F80813C0F84813A1000144D1F8401597
:102F5000D0F80425891A21F07F41022907D300EB1C
:102F600084020021C2F8401507EB840146500B484B
:102F700050F824000090BDE8F88340F2F1216C2065
:102F800000F028FC00800040408100401F0000202D
:102F900008F501401C00002000B0004040B1004096
:102FA00020496FF48020C1F808031F480A1D0378E8
:102FB00000205BB16FF4A023C1F84833C2F840058C
:102FC000C1F844011949096899B90CE06FF48023EC
:102FD000C1F84833C1F84005C1F84001C2F84005C6
:102FE000C1F84401EEE74FF0E0224FF40061C2F86F
:102FF00080120F494FF0FF32C1F80823C1F8400595
:10300000C1F840010A1DC2F84005C1F84401121D73
:10301000C2F84005C1F84801121DC2F84005C1F8C8
:103020004C01704700B000401F00002048B1004034
:1030300000800040084890F902000028B8BF70479F
:1030400000F01F01012202FA01F14009800000F1A5
:10305000E020C0F8001270471C00002010B50728BF
:103060000DD2DFE800F00404040406060600064959
:1030700002E0001F0549C0B201EB800010BD40F224
:103080009D216C2000F0A6FB4081004040B1004033
:1030900010B51C48002404210470C01E017089056D
:1030A000C160FFF77FFC4FF0E0234FF400624FF068
:1030B000010CC3F88021BFF34F8FBFF36F8FC3F8AC
:1030C00080221148C0F804C0C0F808C0D0F8041528
:1030D0000029FBD1491EC0F80813C0F84813C0F8F6
:1030E0004045C0F840410949C1F84045C0F8444155
:1030F000091DC1F84045C0F84841C3F80021C0F897
:1031000000C010BD1F00002000B0004004B000400F
:103110002DE9F041164C607A002827D04FF48071D9
:103120008D0528460CF049FD80464FF482712846F3
:103130000CF043FD00260746B8F1000F09D001202E
:10314000C5F80803207920B12671E06908B18047ED
:10315000E66137B1C5F804610220C5F8080300F044
:103160006DFA4046BDE8F04100F05AB8BDE8F08184
:103170002C00002010B50CF0CAFD30B90CF0E8FDB1
:1031800018B90CF01BFE002802D00249022008608A
:1031900010BD0000340C004070B500F087F900F05D
:1031A000A1FA094C4FF0804530B1FFF7E3FF012051
:1031B00028610420A07204E00320A0720120C5F859
:1031C00004030020E07170BD2C00002070B5134C8A
:1031D000A079F0B1012803D0E179401E814218DACC
:1031E00000F080FA054600F065FBA179012902D9BB
:1031F000E179491CE1710DB1616900E02169411A71
:10320000022902DA11F1020F07DC0DB1606100E062
:103210002061BDE87040FFF7BFBF70BD2C000020EB
:103220002DE9F04706464FF080454FF48671284659
:103230000CF0C3FC80464FF4887128460CF0BDFCAE
:10324000274C8246277804F108000CF02AFD10B1C3
:103250004FF4D57116E04FF0010946B1A07A03286A
:1032600005D10420A072FFF785FFC5F81090002655
:10327000B8F1000F18D0C5F80C61A07A042804D06A
:103280004FF4DE716D2000F0A5FA0CF040FD28B976
:103290000CF05EFD10B90CF091FD08B1114806600C
:1032A0000220A07200F0E6F8BAF1000F08D0C5F8CD
:1032B0001061A07A022801D1FFF788FFC5F81490A9
:1032C0003FB12670A07A022801D1FFF765FF00F018
:1032D000D1F8BDE8F047024808300CF0F9BC000016
:1032E0002C000020340C00402DE9F0475C4C4FF0DE
:1032F00000080646C4F81880437882780078E072A7
:1033000063710127A271BD0784F80780052824D2C4
:10331000DFE800F00F03051F2100A76109E000F0BE
:10332000C5F8012128460CF04DFC0028F9D00220F8
:10333000A0610CF073FCB0B100F0EEF9217E01F059
:10334000030188420FD1B07950B10220C5F80403BF
:103350006AE04448ECE74448EAE740F22D3149E0AE
:1033600000F0AEF960E0EF604FF4827AC5F80481B6
:10337000A069C5F818050CF0B6FC40B90CF0BDFC0E
:1033800028B90CF0D1FC10B90CF0E2FC38B14FF0C8
:1033900080513648D1F84412C1F3423101600CF03B
:1033A000A2FC40B90CF0A9FC28B90CF0BDFC10B986
:1033B0000CF0CEFC10B12D4810300760AF60022039
:1033C000C5F80403B07978BBD5F8040310F0020FF8
:1033D0000ED0DFF89C90D9F80010C94341F30017D4
:1033E000D9F8001041F01001C9F800107F1C07E067
:1033F00040F2EE216D2000F0EDF900BF00F010FB6F
:10340000514628460CF0D9FB0028F7D000F058F9B7
:103410002FB9D9F8001021F01001C9F800100220CE
:10342000C5F80803C5F80481A07970B1307860B997
:1034300000F058F9064600F03DFA6FF0004216B170
:10344000C4E9042001E0C4E90402012128460CF08B
:10345000B9FB08B100F040F984F80A80BDE8F087B4
:103460002C00002001000200010003003C05004088
:1034700010ED00E010B5EFF3108472B60A48417801
:1034800029B14178491E4170417829B108E040F2E4
:103490000D116D2000F09EF9807808B900F030F928
:1034A000002C00D162B610BD2C00002010B5EFF347
:1034B000108472B606484178491C41704078012852
:1034C00001D10CF096FB002C00D162B610BD0000BB
:1034D0002C000020054810B5C17821B100210171F0
:1034E000C170FFF7C7FF002010BD00002C000020B6
:1034F00070B50C4CE17861B90125E570E061FFF72A
:10350000D5FF00F0EFF830B1E06910B1804700203E
:10351000E061002070BD4FF080402571C0F8045379
:10352000F7E700002C000020EFF3108072B604498A
:103530008A78521C8A70002800D162B67047000059
:103540002C00002010B5EFF3108472B60A48817881
:1035500029B18178491E8170417829B108E040F293
:1035600025116D2000F036F9807808B900F0C8F810
:10357000002C00D162B610BD2C0000202DE9F041D6
:1035800004006FF015003CD02178042939D80029B7
:10359000617838D0002934D1A178002931D10020B8
:1035A0000CF0D6FA00200CF0C6FA4FF080484FF02D
:1035B000FF31C8F808130026C8F80061C8F8046194
:1035C000C8F80C61C8F81061144F7E70A088B881EB
:1035D0000CF006FB012508B1FD707D70012140460D
:1035E0000CF0F0FA08B100F077F82046FFF77CFE07
:1035F0007D7200200CF09FFA4FF0E0213046C1F8B8
:103600000051BDE8F0810029FBD02029F9D8A1782C
:103610002129F6D80129C2D1F3E700002C000020AF
:1036200001488089704700002C0000200248807A01
:10363000002800D0012070472C000020F8B51F4D55
:10364000E87A00280FD1287E00F003000CF0D6FAAB
:10365000002808D0EFF3108172B6FFF7E7FF18B12A
:10366000002900D162B6F8BD0126AE7201B962B67A
:1036700018204FF08044C4F80803A6614FF420706E
:10368000ADF80000BDF80000411EADF80010F9D201
:103690000027C4F80C71C4F81071084808300CF009
:1036A00013FB2F70FFF778FD6661687900F07F00EB
:1036B000C4F838051820C4F80403F8BD2C00002015
:1036C00010B5044C207E00F003000CF097FA00289F
:1036D000F8D010BD2C00002001490120087070476F
:1036E000040300204FF08040D0F8000118B90348CF
:1036F0000078002800D0012070470000040300205B
:103700004FF08040012141600021C0F800110148C4
:1037100001707047040300200248006800F00300B5
:10372000704700001C04004010B531B1012907D0DA
:1037300040F2023105A000F021F8D0F8140401E0B5
:10374000D0F8080400F0010010BD00006E72665F42
:10375000636C6F636B2E6800BFF34F8F0548016881
:10376000054A01F4E06111430160BFF34F8F00BFD0
:10377000FDE700000CED00E00400FA0572B6034A14
:10378000526802B19047FFF7E7FF00004C000020AD
:10379000064810B5002101600121016008460CF0C7
:1037A00054FABDE8104001200CF042BAFC1F004062
:1037B000074810B501214160891EC0F808130C208C
:1037C0000CF043FABDE810400C200CF031BA0000B8
:1037D00000C000400EB572B60F4A5568D5B1002240
:1037E00003466E460A2403E0B0FBF4F0521CD2B24A
:1037F0000028F9D1B05409E0B3FBF4F004FB103019
:10380000B3FBF4F3521ED2B23030B054002AF3D1DD
:103810003046A847FFF7A0FF4C00002070B5174CBA
:1038200006460D46607810B14FF0FF3070BD06B906
:10383000134E62602570FFF7ABFFFFF7B9FF30460C
:10384000FFF79CFE0600F1D1FEF700FFFFF7F6FE42
:103850000CF048F928460CF0EBF90120002D09DBAB
:1038600005F01F0100FA01F16A09920002F1E0225D
:10387000C2F800116070304670BD00004C0000209E
:103880006CFC000001484078704700004C000020AC
:10389000074890F90000002809DB00F01F02012111
:1038A00091404009800000F1E020C0F8001270470C
:1038B0004C0000202DE9F04101264FF0E0223103B9
:1038C0004FF000084046C2F88011BFF34F8FBFF39E
:1038D0006F8F164CC4F800010C200CF0D5F9144D74
:1038E0002868C04340F30017286840F010002860A3
:1038F000C4F8046326607F1C02E000BF00F090F86B
:10390000D4F800010028F9D01FB9286820F0100071
:103910002860084805686660C4F80863C4F8008138
:103920000C200CF0B1F92846BDE8F08100C0004041
:1039300010ED00E008C5004010B5024605200C4916
:1039400004E000BF01EBC0031B7933B1401EC0B2DD
:10395000F8D248216920FFF73DFF41F8302001EB04
:10396000C00100224A718A7101220A7110BD000053
:10397000A80C002010B5052801D3582106E00A49FB
:1039800001EBC0000179012903D059216920FFF71B
:1039900021FF41798279491CC9B28A4200D0417124
:1039A000BDE81040FFF774BFA80C002070B50525D6
:1039B0000E4E0F4C16E0217806EBC1000279012A69
:1039C00008D1427983799A4204D04279827156F8BB
:1039D000310080472078401CC0B22070052801D3F8
:1039E000002020706D1EEDB2E5D270BDA80C002045
:1039F0000503002000B50CF076F940B90CF07DF914
:103A000028B90CF091F910B90CF0A2F908B10248EC
:103A100000BD024800BD00000C05004000E7014069
:103A200010B50CF095F930B3EFF31080C8B1002158
:103A300072B6124802680368C2F3001243F0100322
:103A400003604FF0E023D3F80042D3F804321C4364
:103A500000D040BF20BF00BF00BF00BF00BF12B1F9
:103A600005E00121E4E7026822F01002026000296B
:103A700000D062B610BD20BF10BD000010ED00E008
:103A800070B50E4C6078002817D1207800250128E9
:103A900006D102202070206910B12069804725617D
:103AA0002078032809D125702069002805D0606896
:103AB0004069804720698047256170BD540000201F
:103AC00010B5084C2078022802D02078032802D1B3
:103AD0006068806880470020A0706070BDE810407A
:103AE000FFF7CEBF5400002002480078002800D025
:103AF000012070475400002038B50446052804D33F
:103B000040F237116820FFF765FEFFF7B9FF104D4F
:103B1000012068702878022816D16868C16820469C
:103B200088470C4901EB4402527882420DD3A878B1
:103B300001280AD011F814008DF800008DF801401A
:103B4000686801686846884738BD0120F4E70000CE
:103B5000540000203811002005490A78022A04D0B8
:103B60000A78032A01D0002070474968096908478C
:103B70005400002010B558B108490A78022A02D032
:103B80000A78032A09D149684968BDE81040084706
:103B900040F24D116820FFF71DFE10BD54000020BB
:103BA00005480178022904D00178032901D00020BA
:103BB000704740688069004754000020C1FF000042
:103BC000DDFF0000CBFF0000D7FF0000C5FF0000B5
:103BD000BFFF0000BDFF0000E3FF0000D1FF0000B9
:103BE000B7FF0000AFFF0000B3FF0000A9FF000017
:103BF000014800680068004768000020014800682C
:103C00000069004768000020014A12689268104766
:103C10006800002001480068C06800476800002074
:103C2000014A12685268104768000020014909687B
:103C3000096A0847680000200148007870470000C2
:103C4000060300201FB5174C207A022800D202205C
:103C50008DF80100E079032800D203208DF80000E0
:103C6000A079ADF804006079ADF80200684609F06B
:103C700041FC08B1842110E0E068029002A809F03C
:103C80004FFC08B1882108E007480068039003A8AA
:103C90000FF0A5FA002803D08C21032000F050F982
:103CA0001FBD0000D00C0020EC3F00007CB5044696
:103CB00000680D4600F1030020F0030020604FF083
:103CC00000000090019008788DF8010048788DF888
:103CD000020088788DF80300C8788DF804002879F0
:103CE00016008DF8050001D0002000E0206869462C
:103CF00000F012FB216808442060A97841B16B8A6A
:103D0000EA7806B1002000F0D7FD21680844206061
:103D10001948C17879B1297C69B1007908B1FF22CD
:103D200000E025220EB1002000E0206800F05AFEDD
:103D3000216808442060287968B12068C01C20F000
:103D4000030020602A7D297906B1002009F0ACFF2C
:103D5000216808442060687D00280CD02068C01CC1
:103D600020F003002060697D06B1002000F06AFEAB
:103D70002168084420607CBD6C00002010B528B18B
:103D8000142204490CF036F8002010BD6FF0150025
:103D900010BD00000840000070B510B16FF02C009D
:103DA00070BD2A4C607810B14FF0FF3070BD09B380
:103DB0006FF01500002AF9D0254B0C29F6D2DFE868
:103DC00001F006070A0D111420281A2B2E33EDE7F7
:103DD000107818702CE01078587029E01068C3F83B
:103DE000050025E01068D86022E01178DA78914269
:103DF000DCD399701CE011789A789142D6D8D970AA
:103E000016E0E17811B111780229CFD31078187437
:103E10000EE0108858820BE01078187108E01178D5
:103E20000229C3D3197503E011780829BED8597542
:103E30000122074900200CF0D6F8B0F5803F02DBE4
:103E40006FF00B0070BD0121A17070BD6C000020EF
:103E5000D00C002070B50C46050019D0C4B100F09C
:103E600007F9C0B12846FFF767FD0C4D00220C4949
:103E7000287020460CF0B7F80FF04DFF002128788D
:103E800009F06AFEFFF7DEFE01206870002070BDB9
:103E90006FF0150070BD4FF0FF3070BD6C0000205A
:103EA000D00C002030B587B005000CD0FFF7EAFC3D
:103EB0004FF0FF3420B1FFF7B3FBB0F5FA7F05D91F
:103EC000204607B030BD6FF01500FAE7164C1748D2
:103ED000A56000F0FDF900206070A070E070207116
:103EE0000146182268460BF0FFFF18221049684669
:103EF0000BF080FF182269460E480BF07BFFEFF3B2
:103F0000108472B60C486FF00C0100F033FE0B48C1
:103F100000F000FF18B19A21032000F011F804B955
:103F200062B60020CDE700006C000020453C000098
:103F3000F03F0000D00C002000C000409D40000079
:103F40000EB572B6154A9568D5B1002203466E4685
:103F50000A2403E0B0FBF4F0521CD2B20028F9D1DD
:103F6000B05409E0B3FBF4F004FB1030B3FBF4F3FE
:103F7000521ED2B23030B054002AF3D13046A84796
:103F8000BFF34F8F06480168064A01F4E061114310
:103F90000160BFF34F8F00BFFDE700006C00002001
:103FA0000CED00E00400FA05064810B58178407871
:103FB000014302D04FF0FF3010BD09F0FDFD00209D
:103FC00010BD00006C000020074810B581784278D1
:103FD000114302D04FF0FF3010BD0121C17009F034
:103FE000FDFD002010BD00006C000020010000005D
:103FF00001010100001B1B03020000004C1D00001A
:1040000003001F00020000000EE7C56667183CAC05
:10401000B3D2CC81A3DCF1C0C0360222054A10B570
:10402000526812B1BDE81040104783210420FFF709
:1040300087FF0000E80C0020054A10B5126812B195
:10404000BDE8104010477D210420FFF779FF0000F4
:10405000E80C0020054A10B5926812B1BDE8104086
:10406000104789210420FFF76BFF0000E80C0020B7
:104070000548016829B1416819B1806808B101207B
:104080007047002070470000E80C002002490DC86E
:1040900081E80D0000207047E80C0020F8B5124CB4
:1040A0000026256811E00098022802D003280CD1D0
:1040B00006E0206810B10020266005E028210CE011
:1040C000206868B101202660A847684600F0F4FD2A
:1040D0000028E8D0052805D035210420FFF730FF5F
:1040E0002D21FAE7F8BD0000780000207CB51F4CB8
:1040F0000546207840B1A278611C2846921C0BF03E
:1041000079FE0020207021E0194802F009FE002805
:104110001DD0174C2078142804D10A213E2000F02D
:1041200029F818B120780A2805D009E01049284656
:104130000CF010FA0AE005213E2000F01BF838B11F
:104140000B4928460BF0A4FF002800D001207CBDBD
:10415000A088ADF8000001A968460CF024FB0028F7
:10416000F5D09B210820FFF7EBFE0000FC0D00209E
:10417000F40C002070B50C46054600F04BF8002802
:1041800002D03E2D01D0012070BD122C06D1064870
:104190000178022902D040780028F5D02046BDE8F9
:1041A000704000F053B80000070300200149487038
:1041B000704700000703002070B50A7882703AB398
:1041C000012A25D81323037000230AE001EB4304DE
:1041D00000EB4305A678EE706488240A5B1C2C7102
:1041E000DBB29342F2D300230BE000BF01EB4305A7
:1041F00000EB43042E796671AD882D0A5B1CA57116
:10420000DBB29342F2D3012101EB8200C0B270BD58
:10421000002070BD01210C4A40280CD2202803D870
:10422000401E8140106802E0213881405068014200
:1042300007D100207047FF2803D0403881409068A4
:10424000F5E70120704700007C0000200121401E9E
:1042500081400448C068014201D00120704700201D
:10426000704700007C00002001490068C86070476A
:104270007C00002004490268406842F48C220A60F5
:10428000024A1043486070477C000020F807400253
:1042900005484FF0FF310160C90C41600021816089
:1042A0001F21C160704700007C00002010B5FFF79F
:1042B000EFFF0020FFF77AFF0FF005F904460348EF
:1042C000006800B18047204610BD00008C0000202F
:1042D00001490860704700008C0000200221018025
:1042E0004180002101710E2141714CF2E751C180E2
:1042F00001498160002070476667183C10B50528A9
:1043000004D34FF4D6711720FFF71AFE0149085C59
:1043100010BD0000000F0020F8B504468A784878E8
:104320000244FF2A02D940F25F111DE00A7882425E
:1043300002D940F2631117E00094C4B100264B7813
:1043400091F802C04A790CEB0300C5B2AA4200D929
:104350001546C878A84200D90546E71C27F0030790
:10436000A74206D040F279111720FFF7E9FD012698
:10437000E5E7154F3B7087F801C0B8700879F87011
:104380003A713146684600F00FF900218C460098DA
:10439000C01C20F0030000905EB907EB8103D861D8
:1043A000002004E0DA6942F820C0401CC0B2A842F4
:1043B000F8D30098491C00EB8500C9B2009005298C
:1043C000E5D3001BF8BD0000000F002070B50446C7
:1043D0000CF086FE08B1102070BD257800F020F9A1
:1043E00002460C48618800EB85000EE0C36953F873
:1043F000213043B14A1C6280A180C06950F821007D
:10440000A060002070BD491C89B29142EED361804A
:10441000052070BD000F00202DE9F041074611B1C5
:10442000002038B901E00120FBE7012902D000207B
:1044300038B901E00120FBE7022902D0002038B999
:1044400001E00120FBE7032902D0002060B901E070
:104450000120FBE7042907D0002000281FD00024FA
:104460001248012902D002E00120F6E70478002377
:104470004FF6FF7600EB810C10F801E008E0181908
:10448000DCF81C5080B255F8205025B15B1C9BB263
:104490009E45F4D830463880B04202D10020BDE8B5
:1044A000F081BDE8F04100F035B80000000F0020B9
:1044B0002DE9F0410746A0F57F400C4643F2020685
:1044C000FF3820D0052C02D30720BDE8F081384604
:1044D00000F05AF8050016D00C48294650F8242060
:1044E000384690470A48002100EB8406F06940F8FE
:1044F0002710204600F08AF802462946B0680CF0E2
:1045000027FC0020E1E73046DFE700005C460000C2
:10451000000F00202DE9F04190460E4607460CF0B2
:1045200063FC48B1164800EB8604E06950F82700A8
:1045300028B14FF49D7115E040F2391112E0A068E6
:1045400000281AD0304600F061F80146A0680CF04F
:10455000B1FB050010D0E069052E40F8275004D3C8
:1045600040F245111720FFF7EBFC0648424629466A
:1045700050F82630384698472846BDE8F0810000BC
:10458000000F00204846000070B50C4605460CF0B0
:104590002BFC002805D0034800EB8400C06950F8CC
:1045A000250070BD000F00202DE9F843164F884606
:1045B000054600242868C01C20F00300286020461F
:1045C00000F024F8395D4143B8F1000F01D000201C
:1045D00000E02868009018B100261EB1002002E01B
:1045E0000126FAE768460CF092FB1EB907EB84013E
:1045F000009A8A602968641C0844E4B22860052C8B
:10460000D8D3BDE8F8830000000F0020034931F83B
:1046100010004FF6FC71C01C084070477046000047
:10462000084B187859780844C1B29878814200D371
:104630000846DA78904200D210461979884200D2B2
:1046400008467047000F0020FD0D0100FD0D010020
:10465000FD0D0100FD0D0100FD0D010033290100DC
:10466000D52501000D1D0100013D0100073D0100A0
:10467000E00128020C017000600000002DE9FF4FEE
:10468000264C804681B020689A46934658B1027AFB
:10469000424503D9416851F8280040B143F2020075
:1046A00005B0BDE8F08FA5211820FFF749FC194699
:1046B00002980CF0BBFB87B258460E990CF0ADFB8C
:1046C00086B2B819001D85B22068A1462946006847
:1046D0000CF0F0FA04001FD0658026800E98251D8E
:1046E000009031465A46012328460CF03CFA2088B7
:1046F000394628440123029ACDF800A00CF033FA81
:104700002088411928460CF061FAD9F80000416868
:10471000002041F82840C3E70420C1E790000020B2
:1047200070B5144C23688BB1197A814212D95A683A
:1047300052F8201071B1002542F820504A881868BC
:104740000CF006FB216800200A7A0CE0C821182032
:10475000FFF7F6FB43F2020070BD4B6853F82030C0
:1047600033B9401CC0B28242F7D808680CF0E5FAB1
:10477000002070BD900000202DE9F0410D4604009E
:1047800090464FF0000609D00027E01C20F00300FF
:10479000A04205D086211820FFF7D2FB0127F4E7BD
:1047A000CDB1114600200CF0B2FA0C3000EB8506BA
:1047B0008FB90A4F04F10C00AA003C6025726060BA
:1047C00000EB85002060002160680BF08DFB414606
:1047D00038680CF09CFA3046BDE8F081900000206B
:1047E000094910B502460968002049B10B7A934285
:1047F00005D9496851F82210002900D0081D10BDC4
:10480000EE211820FFF79CFB900000200A4910B50C
:1048100002460968002059B10B7A934207D94968CA
:1048200051F82210002902D031F8040B084410BDC1
:10483000FC211820FFF784FB900000202DE9F041B7
:104840001C4E456804460022A1B1012060707088AA
:104850008308002004EB400104EB80060A830B84EC
:1048600000FB035171602118401C0A750428F1D324
:10487000BDE8F0816270002004EB40010A830A84E5
:1048800004EB80014A602118401C0A750428F3D308
:1048900070880CF049FB074670880CF04CFB656093
:1048A00020842918A1606784E560A0842161E784E1
:1048B000DEE70000940000202DE9F04780B10026DB
:1048C0001144CFB2DFF89C80C11C002421F0030109
:1048D00088F80070814205D04E210920FFF730FB97
:1048E0000126EDE71F2B04D84FF6FF7101EA830183
:1048F00009E05900FF2B0BD903F1FF02B2EB430F84
:1049000000D2114689B2C91C21F0030536B109E075
:104910007C22B2EB430FF5D37C21F3E7C8F8040007
:10492000A8F8025007EB870104EBC10200214FF009
:1049300001090FE05EB9D8F8044001EB810300EBF8
:10494000020C04F8339004EBC303C3F804C0491C01
:104950002A44C9B2B942EDD3D21D22F00700BDE806
:10496000F08700009400002070B511480024214613
:1049700002780CE0456801EB810315F8333023B170
:1049800001EB810105EBC10403E0491CC9B291426E
:10499000F0D344B10025A57001212046FFF74EFF5A
:1049A0002570204670BDA9210920FFF7C9FA000033
:1049B00094000020044810B5408884080CF0BBFA2D
:1049C000844200D3204610BD940000200148407866
:1049D000704700009C0000200148406870470000BC
:1049E0009C0000202DE9F8430C46074616461C2182
:1049F00010460D4622460CF018F9804657B138464D
:104A0000414632462B4600940CF0ADF8034847600F
:104A1000047046704046BDE8F88300009C0000200A
:104A20000248427801784068FFF7DCBF9C00002014
:104A3000034B00211878C0EBC00258680BF054BA41
:104A4000A400002010B50C4610B1002212B10FE0F6
:104A50000122FBE7C11C21F00301814203D0202188
:104A60004120FFF76DFA044948600C70FFF7E0FF42
:104A7000C4EBC40010BD0000A4000020094910B51B
:104A800007480860084B112003EBC0040022C4F85B
:104A90001025C4F81425401CC0B21428F4D310BD4E
:104AA0000000FEFF08F5014000F0014070B5202431
:104AB0000021012320FA01F2D20720D04AB2002AB5
:104AC00010DB00BF4FEA52164FEA860602F01F05C0
:104AD00006F1E02603FA05F5C6F88051BFF34F8FC3
:104AE000BFF36F8F0BDB02F01F054FEA52124FEA44
:104AF000820202F1E02203FA05F5C2F8805201F1C8
:104B00000101A142D6D370BD70B542004FF0000143
:104B100001D5144A1160C0F38032C0F3C0339A4209
:104B200003D069211B20FFF70BFA10F4404F14D07B
:104B30000D4A01205060831EC2F808330B4A906072
:104B4000C2F80012C2F80833094C2160251D286004
:104B50009060C2F8083321602860BDE87040FFF71C
:104B60008DBF000004E5014000E0004000F000407F
:104B700000F5004070B50A4C0D462060FFF7C4FFF9
:104B80002068FFF793FF00F083F8FFF777FF0CF042
:104B90009CFA284600F0B6F8BDE8704000F0CEB8A8
:104BA000AC0000202DE9F14F364C82B0D4F804B5AA
:104BB000012635480BF075F8DFF8CC9020B90026B7
:104BC00009F101000BF084F84FF480754FF00008F4
:104BD0002F1D01216160C4F80081C4F8048102988E
:104BE000C4F804052160DFF8A4A01CE0DAF8000096
:104BF000C00618D50E200CF054FAEFF31080009088
:104C000072B603212046C4F8041329460CF056FA64
:104C100030B9394620460CF051FA08B9FEF700FFCA
:104C2000009800B962B6294620460CF047FA28B928
:104C3000394620460CF042FA0028D7D039462046A3
:104C40000CF03CFA0028C4D136B1C4F804B509F11F
:104C500001000BF026F812E009F101000BF021F839
:104C60000028ADD10320C4F80803C4F80481C4F8B7
:104C700000810E200CF015FA03480BF029F80020F3
:104C8000BDE8FE8F00E000400903002010ED00E0C9
:104C900010B508480BF018F808B1252106E00548C2
:104CA000401C0BF011F8002803D029211D20FFF72C
:104CB00047F910BD0903002070B511490A68EAB12F
:104CC00000231D4601244A68521C4A600C2A00D366
:104CD0004D600E7904FA06F20E6816420BD0EFF31F
:104CE000108372B60C6894430C6003B962B64968CD
:104CF0000160002070BD5B1C0C2BE4D3052070BD4F
:104D0000B0000020024800210160416070470000AF
:104D1000B000002010B5084C617809B10F2010BD1B
:104D2000FEF70AFE2070FF2801D0002010BD76217A
:104D30001F20FFF705F90000B800002001490020FE
:104D400048707047B800002005498A8C824218BF1D
:104D50007047002081F822004FF6FF70888470476A
:104D6000081100200648074A818C5288914205D1DB
:104D700090F8220000281CBF0020704701207047D7
:104D800008110020EC020020014948807047000013
:104D9000EC0200200848094A818C5288914209D1CE
:104DA0004FF6FF71818410F8221F19B100210170A4
:104DB000012070470020704708110020EC020020FD
:104DC000074901F1220091F82220012A04BF0020A6
:104DD000704701220270034800888884104670479B
:104DE00008110020EC0200200749084B8A8C5B88E0
:104DF0009A4206D191F82220002A1EBF01600120AC
:104E0000704700207047000008110020EC020020CD
:104E100009498A8CA2F57F43FF3B03D00021016042
:104E20000846704791F822200349012A1ABF016001
:104E3000012000207047000008110020014908806F
:104E400070470000EC0200200A4A10B1012807D088
:104E50000EE0507860B1D2F802000860D08804E01B
:104E6000107828B190680860908988800120704788
:104E7000002070470B030020094A012340B101289C
:104E800018BF7047137008689060888890817047D9
:104E900053700868C2F802008888D080704700000C
:104EA0000B030020064910B1012803D006E0487822
:104EB00010B903E0087808B101207047002070475E
:104EC0000B0300200149487470470000E2080020ED
:104ED0000149012088717047D40000202DE9F84F66
:104EE000F34DDDF828C02C78002C66D1002A1CBFB9
:104EF000002BBCF1000F60D0C5F81CC0C5E90E0145
:104F00004FF00000C5E90523A8716871E870A8702A
:104F10002871DFF8A093A881E881D9F8040000F196
:104F20007807044609F09EFE09F046F894F96E00F1
:104F300009F02CFF04F118000AF022FA20690AF0A7
:104F400015FA97F823000AF07DFA99F8000041F667
:104F50004C5A002836D00420FEF7CEFDE0685045BC
:104F600028BF962003D201200AF0CAF94D2009F08B
:104F70006FFDD9F8040090F88401002818BF09F0EB
:104F800057FD94F86B10012009F03EFB002808BF84
:104F9000BDE8F88FC84809F0E3FC2088FFF736FC2D
:104FA00028632088FFF71CFC686394F877008DF86D
:104FB00000009DF8000060BB1BE04FF48A712720C1
:104FC000FEF7BEFF0320FEF797FDE068504528BFBF
:104FD000962003D201200AF093F94D2009F038FD04
:104FE00094F86A10002009F00FFB0028D2D1BDE828
:104FF000F88F206F68B1788EB988884209D1B4F8EB
:10500000741001220844788694F87600216FFDF729
:1050100063FB07F16801A94891E80E1000F584765A
:105020004FF0010886E80E10B96FC0F82111F96F32
:10503000C0F82511D9F8040000F1780190F885C076
:10504000BCF1240F1CBF897B24290CD04FF008022F
:105050004FF00203BCF11F0F18BFBCF1200F2DD081
:10506000222951D07FE099F80010002990F86A10A9
:1050700013D090F8A601002879D0082918BF042978
:105080006ED0082818BF04286AD0012918BF01284B
:1050900056D000BF4FF0020169E090F82A010028C5
:1050A00065D0082918BF04295AD0082818BF042839
:1050B00056D0012918BF012842D0EBE7222923D07E
:1050C00099F80010E9B390F86A1090F8C00110F058
:1050D000040F18BF10460CD0082918BF04293FD070
:1050E000082818BF04283BD0012918BF012827D061
:1050F000D0E710F0010F18BF4046EDD110F0020FBD
:1051000018BF1846E8D132E099F80010C9B190F8FC
:105110006A1090F8C0C190F863000CEA000010F02B
:10512000040F18BF104610D0082918BF042917D043
:10513000082818BF042813D0012918BF0128A9D1B5
:1051400000E010E04FF0010111E010F0010F18BF76
:105150004046E9D110F0020F18BF1846E4D106E02E
:105160004FF0080103E090F86A100429F8D0208F6E
:1051700011F00C0F18BF4FF429600CF018F9A18E34
:10518000814238BF0846287294F86B10E08F97F878
:1051900013B0A68F082936D00CF009F9BBF1000F27
:1051A00004BF001D80B2864228BF064602F07AF98D
:1051B00010B1232E98BF2326F2B26A72F97C00291F
:1051C00014BF042000201044E87199F800303C48D6
:1051D000EBB1E9B380F81880D7E91813C0E90413DC
:1051E00094F86B00012808BF00233FD0022808BFB5
:1051F00001233BD0042808BF032337D0082808BF69
:10520000022333D01DE004210CF0D1F8C6E7B97CAD
:1052100041B380F81880D7E91612C0E9041294F857
:105220006A00012808BF002310D0022808BF01230C
:105230000CD0042808BF032308D0082808BF022385
:1052400004D040F2AD310620FEF77AFEFB2200E0EA
:1052500012E01B49002008F005FFE068504528BF18
:1052600008F064FF012000F015FC08E0144901205B
:1052700008F0F8FE08F05AFF012000F0B1FB1148D9
:105280000068032818BF0B280CD00F4D28460EF0DD
:1052900054FEB88868802088288097F823002871F9
:1052A000BDE8F88F40F2C1112720FEF749FE00004B
:1052B000D40000200C010020745C00009007002046
:1052C0009808002050150040E20800202DE9F04722
:1052D00006004648464D406800F17804686A90F838
:1052E000019018BF012E03D1696B0AF0C0FE6870EF
:1052F000687800274FF0010850B101282FD002280C
:1053000055D0032867D040F215412720FEF718FE3C
:10531000012E12D0A86A002844D06989CA1C696A83
:105320000AF068FDA86A686201224946686B0BF0C2
:10533000D2FA022E08BFBDE8F087D4E91802411C5A
:1053400042F10000C4E91810207A012801D1277227
:1053500001E084F80880BDE8F04701F0EFBF012EBE
:1053600011D0A86AF0B16989CA1C696A0AF042FDC5
:10537000A86A686200224946686B0BF0ACFA022EFC
:1053800008BFBDE8F087D4E91802411C42F10000D3
:10539000C4E91810207A01280CBF277284F808800D
:1053A000BDE8F08740F25B412720FEF7C9FD012EE2
:1053B00006D0686B0BF079FC022E08BFBDE8F087C1
:1053C000D4E91802411C42F10000C4E91810207A07
:1053D0000128BED1BBE7012E08BFBDE8F087686B8E
:1053E0000BF063FCBDE8F04701F0A8BF0C01002002
:1053F000D400002038B51A48017800F1380449B1CA
:105400002178007849B102280ED040F2DD11272022
:10541000FEF796FD00F09EFA0BE0012809D040F25D
:10542000D9112720FEF78CFD6068D0F8180109F02B
:105430009FFA606890F877108DF800109DF80010C2
:10544000002918BF38BD016F002908BF38BD90F88A
:105450007600BDE8384000221146FDF73DB9000056
:10546000D4000020012984BF0120704770B51B4C77
:105470000546A169884700282CD0607950BB04F10B
:1054800038000178002908BF012D01D021B31DBBD0
:105490001348027812F0100F06D1E06A007810F07D
:1054A000100F08BF012001D04FF00000A36A23B9FC
:1054B000638913B112F0100F0CD000291CBF217B9F
:1054C00011F0020F03D0216AC978022904D0A18902
:1054D000084301D0012070BD002070BDD400002021
:1054E000E40000202DE9F35FD34E8346A6F1380592
:1054F0007068002700F178082878B946022804D09F
:1055000040F2BA412720FEF71BFDA87B10F0400FA8
:1055100007D140206A6900219047E88940F04000A7
:10552000E88198F813004FF0010ABBF1000F00F07A
:10553000E98008F02DFE08F00FFE98B998F81300E6
:1055400080B1686A417869B1007898F80810C0F3B2
:10555000C000884206D185F802A002B0BDE8F05F25
:1055600000F0F8B9686A41786981002908BFAF6224
:1055700003D0686B0BF066FBA862E88940F480708A
:10558000E881686A98F807100078C0F380008842C4
:1055900046D0706800F1780490F87E0000283BD077
:1055A00002280DD1286B0BF06FF900284CD0D4E9FC
:1055B0001610491C40F10000C4E9161001F0BEFEAF
:1055C000A771307800281CBFE078002809D0E77068
:1055D000AA89394642F01002AA816A694FF0100088
:1055E0009047A07890B1A770FFF7D4FB88B3AA8941
:1055F000082042F00802AA816A6900219047D4E994
:105600001602411C42F10000C4E91610E07901289D
:105610000CBFE77184F807A0E88940F48060E88156
:10562000696A98F808300878C0F3C0029A423BD102
:10563000726800F0030002F17804012818BF022804
:105640001AD003280AD056E04FF46C712720FEF7D9
:1056500077FC4FF472712720FEF772FC84F801A0EA
:10566000EA89504642F40062EA81AA8942F00102C6
:10567000AA816A6990473EE04878E0B3E98941F43D
:105680000061E981A96A79B1FB2809D8A8790028C5
:1056900008BFD14608D020206A690021904703E066
:1056A000687940F01000687198F81200002841D025
:1056B0003078746800280CBF012100215F48017612
:1056C000D8E91612C0E9041294F86A00012808BF4C
:1056D000002323D0022808BF01231FD0042808BFBD
:1056E00003231BD0082808BF022317D040F2AD3196
:1056F0000620FEF725FC207A01280CBF277284F8CB
:1057000008A0D1E7002818BF08F03CFDE878401C4D
:10571000E870E88940F40070E881C5E7FB2247495A
:10572000002008F09FFCE06841F64C51884228BFF9
:1057300008F0FCFC424C019820B9E9780120FFF701
:1057400091FEA8B309F0E2FDB9F1000F1CBF0020E3
:10575000FFF7BCFDBBF1000F22D0EF706079401C59
:105760006071746804F17805294620460BF016FF35
:1057700094F82610012916D1A8B130780028706855
:105780000CBF00F5C67000F5017021884180697A70
:105790000171A97A417180F800A001F0CFFD02E00B
:1057A000A079401CA07102B0BDE8F05F00F0D2B853
:1057B000B9F1000F1CBF0120FFF788FD002000F0A9
:1057C00069F9B9F1000F1CBF0220FFF77FFDBBF1A3
:1057D000000F2BD0EF706079401C6071746804F189
:1057E0007805294620460BF0D9FE94F826100129A9
:1057F0001CBF02B0BDE8F09F002804BF02B0BDE8A6
:10580000F09F3078002870680CBF00F5C67000F576
:10581000017021884180697A0171A97A417180F80B
:1058200000A002B0BDE8F05F01F088BDA079401C87
:10583000A07102B0BDE8F09F0C0100209808002084
:10584000E20800202DE9F047404E8046A6F13805D9
:1058500070680F4600F178042878012804D040F2DF
:105860006A412720FEF76CFB60784FF0010968B1B0
:1058700000216170AA89042042F00402AA816A69A9
:1058800090473078002818BF84F80390296A4FF0B9
:10589000030A08783AEA00000DD1A079A0B9AA89D4
:1058A000022042F00202AA816A699047286A0078C1
:1058B0003AEA000008D0286A407800280EBF84F831
:1058C00006900220A07101E084F806A0E07C58B3A5
:1058D00030786A7A736800280CBF0120002080F0BD
:1058E00001011B480176D4E9181CC0E9041C93F897
:1058F0006B00012808BF002310D0022808BF012335
:105900000CD0042808BF032308D0082808BF0223AE
:1059100004D040F2AD310620FEF712FB0C49012005
:1059200008F0A0FB08F002FC37EA080004D00021D0
:105930000846FFF797FD18B1BDE8F04700F00AB838
:10594000BDE8F047002000F04BB800000C0100203B
:105950009808002010B508F0C7FC08F02DFB0E4C8D
:1059600000216269E0899047E2696179A0789047F7
:105970000A49487C68B1A1F5A970D0F85221D0F845
:105980005631C0F85A21C0F85E310120087401F088
:10599000D5FC0020207010BDD4000020E2080020BB
:1059A000084810B50078022804D040F211212720C1
:1059B000FEF7C6FA04490120C871BDE81040FFF7A0
:1059C000C9BF0000D4000020E2080020034800788E
:1059D000002808BF7047FFF7BDBF0000D4000020BB
:1059E0002DE9F041DFF8A0800600A8F13805D8F8CD
:1059F0000440E86A6862284694F86B10C07904F1A4
:105A0000780702BFFF2894F86A20914201D009F07C
:105A1000C1FCF87CC0B11D4809F0BEF998F800003F
:105A200000280CBF0120002080F0010118480176F9
:105A3000D7E91812C0E90412A0F58471686A08F069
:105A400077FA08F089FA04E0686A09F0A5F908F025
:105A5000B3FA3EB994F86B0010F00C0018BF282080
:105A600008F0BCFFE06841F64C51884294F86A2087
:105A70004FF0000134BF0120002009F0A3FB0220F9
:105A80002870BDE8F08100000C0100209007002084
:105A9000980800202DE9F04FDFF8C88183B0A8F105
:105AA000180BD8F80450A8F1380405F1780695F8D9
:105AB0006A10002801BFE079FF2895F86B00884242
:105AC00003D04FF0FF0009F065FCB079DFF898A132
:105AD0004FF00009012750B1012825D0022836D007
